{
  "contractName": "FlightSuretyData",
  "abi": [
    {
      "inputs": [],
      "payable": false,
      "stateMutability": "nonpayable",
      "type": "constructor"
    },
    {
      "payable": true,
      "stateMutability": "payable",
      "type": "fallback"
    },
    {
      "constant": true,
      "inputs": [],
      "name": "isOperational",
      "outputs": [
        {
          "internalType": "bool",
          "name": "",
          "type": "bool"
        }
      ],
      "payable": false,
      "stateMutability": "view",
      "type": "function"
    },
    {
      "constant": false,
      "inputs": [
        {
          "internalType": "bool",
          "name": "mode",
          "type": "bool"
        }
      ],
      "name": "setOperatingStatus",
      "outputs": [],
      "payable": false,
      "stateMutability": "nonpayable",
      "type": "function"
    },
    {
      "constant": false,
      "inputs": [
        {
          "internalType": "address",
          "name": "appContract",
          "type": "address"
        },
        {
          "internalType": "bool",
          "name": "status",
          "type": "bool"
        }
      ],
      "name": "setAppContractAuthorizationStatus",
      "outputs": [],
      "payable": false,
      "stateMutability": "nonpayable",
      "type": "function"
    },
    {
      "constant": true,
      "inputs": [
        {
          "internalType": "address",
          "name": "caller",
          "type": "address"
        }
      ],
      "name": "getAppContractAuthorizationStatus",
      "outputs": [
        {
          "internalType": "bool",
          "name": "",
          "type": "bool"
        }
      ],
      "payable": false,
      "stateMutability": "view",
      "type": "function"
    },
    {
      "constant": false,
      "inputs": [
        {
          "internalType": "address",
          "name": "airlineAddress",
          "type": "address"
        },
        {
          "internalType": "uint8",
          "name": "state",
          "type": "uint8"
        },
        {
          "internalType": "string",
          "name": "name",
          "type": "string"
        }
      ],
      "name": "registerAirline",
      "outputs": [],
      "payable": false,
      "stateMutability": "nonpayable",
      "type": "function"
    },
    {
      "constant": true,
      "inputs": [
        {
          "internalType": "address",
          "name": "airline",
          "type": "address"
        }
      ],
      "name": "getAirlineState",
      "outputs": [
        {
          "internalType": "enum FlightSuretyData.AirlineState",
          "name": "",
          "type": "uint8"
        }
      ],
      "payable": false,
      "stateMutability": "view",
      "type": "function"
    },
    {
      "constant": true,
      "inputs": [
        {
          "internalType": "address",
          "name": "airline",
          "type": "address"
        }
      ],
      "name": "isAirline",
      "outputs": [
        {
          "internalType": "bool",
          "name": "",
          "type": "bool"
        }
      ],
      "payable": false,
      "stateMutability": "view",
      "type": "function"
    },
    {
      "constant": false,
      "inputs": [
        {
          "internalType": "address",
          "name": "airline",
          "type": "address"
        },
        {
          "internalType": "uint8",
          "name": "state",
          "type": "uint8"
        }
      ],
      "name": "updateAirlineState",
      "outputs": [],
      "payable": false,
      "stateMutability": "nonpayable",
      "type": "function"
    },
    {
      "constant": false,
      "inputs": [],
      "name": "getActiveAirlines",
      "outputs": [
        {
          "internalType": "uint256",
          "name": "",
          "type": "uint256"
        }
      ],
      "payable": false,
      "stateMutability": "nonpayable",
      "type": "function"
    },
    {
      "constant": false,
      "inputs": [
        {
          "internalType": "address",
          "name": "tobeRegisteredAirline",
          "type": "address"
        },
        {
          "internalType": "address",
          "name": "existingAirline",
          "type": "address"
        }
      ],
      "name": "approveAirlineRegistration",
      "outputs": [
        {
          "internalType": "uint8",
          "name": "",
          "type": "uint8"
        }
      ],
      "payable": false,
      "stateMutability": "nonpayable",
      "type": "function"
    },
    {
      "constant": false,
      "inputs": [
        {
          "internalType": "address",
          "name": "insuree",
          "type": "address"
        },
        {
          "internalType": "string",
          "name": "flight",
          "type": "string"
        }
      ],
      "name": "getInsurance",
      "outputs": [
        {
          "internalType": "uint256",
          "name": "amount",
          "type": "uint256"
        },
        {
          "internalType": "uint256",
          "name": "payoutAmount",
          "type": "uint256"
        },
        {
          "internalType": "enum FlightSuretyData.InsuranceState",
          "name": "state",
          "type": "uint8"
        }
      ],
      "payable": false,
      "stateMutability": "nonpayable",
      "type": "function"
    },
    {
      "constant": false,
      "inputs": [
        {
          "internalType": "address payable",
          "name": "insuree",
          "type": "address"
        },
        {
          "internalType": "string",
          "name": "flight",
          "type": "string"
        },
        {
          "internalType": "uint256",
          "name": "amount",
          "type": "uint256"
        },
        {
          "internalType": "uint256",
          "name": "payoutAmount",
          "type": "uint256"
        }
      ],
      "name": "buyInsurance",
      "outputs": [],
      "payable": false,
      "stateMutability": "nonpayable",
      "type": "function"
    },
    {
      "constant": false,
      "inputs": [
        {
          "internalType": "address",
          "name": "insuree",
          "type": "address"
        },
        {
          "internalType": "string",
          "name": "flight",
          "type": "string"
        }
      ],
      "name": "creditInsurance",
      "outputs": [],
      "payable": false,
      "stateMutability": "nonpayable",
      "type": "function"
    },
    {
      "constant": false,
      "inputs": [
        {
          "internalType": "address payable",
          "name": "insuree",
          "type": "address"
        },
        {
          "internalType": "string",
          "name": "flight",
          "type": "string"
        }
      ],
      "name": "creditInsurees",
      "outputs": [],
      "payable": false,
      "stateMutability": "nonpayable",
      "type": "function"
    },
    {
      "constant": false,
      "inputs": [
        {
          "internalType": "address payable",
          "name": "insuree",
          "type": "address"
        }
      ],
      "name": "pay",
      "outputs": [],
      "payable": true,
      "stateMutability": "payable",
      "type": "function"
    },
    {
      "constant": false,
      "inputs": [],
      "name": "fund",
      "outputs": [],
      "payable": true,
      "stateMutability": "payable",
      "type": "function"
    }
  ],
  "bytecode": "0x60806040526001600060146101000a81548160ff02191690831515021790555060006005553480156200003157600080fd5b50336000806101000a81548173ffffffffffffffffffffffffffffffffffffffff021916908373ffffffffffffffffffffffffffffffffffffffff1602179055506001600260003373ffffffffffffffffffffffffffffffffffffffff1673ffffffffffffffffffffffffffffffffffffffff16815260200190815260200160002060006101000a81548160ff02191690831515021790555060405180608001604052806040518060400160405280600d81526020017f4669727374204169726c696e650000000000000000000000000000000000000081525081526020016000809054906101000a900473ffffffffffffffffffffffffffffffffffffffff1673ffffffffffffffffffffffffffffffffffffffff1681526020016002808111156200015a57fe5b8152602001600060ff16815250600160008060009054906101000a900473ffffffffffffffffffffffffffffffffffffffff1673ffffffffffffffffffffffffffffffffffffffff1673ffffffffffffffffffffffffffffffffffffffff1681526020019081526020016000206000820151816000019080519060200190620001e592919062000289565b5060208201518160010160006101000a81548173ffffffffffffffffffffffffffffffffffffffff021916908373ffffffffffffffffffffffffffffffffffffffff16021790555060408201518160010160146101000a81548160ff021916908360028111156200025257fe5b021790555060608201518160030160006101000a81548160ff021916908360ff160217905550905050600160058190555062000338565b828054600181600116156101000203166002900490600052602060002090601f016020900481019282601f10620002cc57805160ff1916838001178555620002fd565b82800160010185558215620002fd579182015b82811115620002fc578251825591602001919060010190620002df565b5b5090506200030c919062000310565b5090565b6200033591905b808211156200033157600081600090555060010162000317565b5090565b90565b612a6380620003486000396000f3fe6080604052600436106100f35760003560e01c806395e491851161008a578063cd441c4d11610059578063cd441c4d146107a6578063cd905dff14610804578063dd77d44514610833578063fd4d02a41461091b576100f3565b806395e4918514610590578063b60d4288146105f9578063b969788314610603578063c0453e361461071b576100f3565b80631b087d7a116100c65780631b087d7a1461025a5780631b7b7cce14610356578063397a055a1461043e5780634c2000c714610533576100f3565b80630c11dedd146100fd5780630e248a1114610141578063110466ed146101aa5780631537b7e0146101e7575b6100fb610946565b005b61013f6004803603602081101561011357600080fd5b81019080803573ffffffffffffffffffffffffffffffffffffffff169060200190929190505050610948565b005b34801561014d57600080fd5b506101906004803603602081101561016457600080fd5b81019080803573ffffffffffffffffffffffffffffffffffffffff169060200190929190505050610be1565b604051808215151515815260200191505060405180910390f35b3480156101b657600080fd5b506101e5600480360360208110156101cd57600080fd5b81019080803515159060200190929190505050610d5b565b005b3480156101f357600080fd5b506102366004803603602081101561020a57600080fd5b81019080803573ffffffffffffffffffffffffffffffffffffffff169060200190929190505050610e3a565b6040518082600281111561024657fe5b60ff16815260200191505060405180910390f35b34801561026657600080fd5b506103546004803603608081101561027d57600080fd5b81019080803573ffffffffffffffffffffffffffffffffffffffff169060200190929190803590602001906401000000008111156102ba57600080fd5b8201836020820111156102cc57600080fd5b803590602001918460018302840111640100000000831117156102ee57600080fd5b91908080601f016020809104026020016040519081016040528093929190818152602001838380828437600081840152601f19601f8201169050808301925050505050505091929192908035906020019092919080359060200190929190505050610fa9565b005b34801561036257600080fd5b5061043c6004803603604081101561037957600080fd5b81019080803573ffffffffffffffffffffffffffffffffffffffff169060200190929190803590602001906401000000008111156103b657600080fd5b8201836020820111156103c857600080fd5b803590602001918460018302840111640100000000831117156103ea57600080fd5b91908080601f016020809104026020016040519081016040528093929190818152602001838380828437600081840152601f19601f820116905080830192505050505050509192919290505050611314565b005b34801561044a57600080fd5b506105316004803603606081101561046157600080fd5b81019080803573ffffffffffffffffffffffffffffffffffffffff169060200190929190803560ff169060200190929190803590602001906401000000008111156104ab57600080fd5b8201836020820111156104bd57600080fd5b803590602001918460018302840111640100000000831117156104df57600080fd5b91908080601f016020809104026020016040519081016040528093929190818152602001838380828437600081840152601f19601f820116905080830192505050505050509192919290505050611700565b005b34801561053f57600080fd5b5061058e6004803603604081101561055657600080fd5b81019080803573ffffffffffffffffffffffffffffffffffffffff16906020019092919080351515906020019092919050505061195f565b005b34801561059c57600080fd5b506105df600480360360208110156105b357600080fd5b81019080803573ffffffffffffffffffffffffffffffffffffffff169060200190929190505050611a7c565b604051808215151515815260200191505060405180910390f35b610601610946565b005b34801561060f57600080fd5b506106e96004803603604081101561062657600080fd5b81019080803573ffffffffffffffffffffffffffffffffffffffff1690602001909291908035906020019064010000000081111561066357600080fd5b82018360208201111561067557600080fd5b8035906020019184600183028401116401000000008311171561069757600080fd5b91908080601f016020809104026020016040519081016040528093929190818152602001838380828437600081840152601f19601f820116905080830192505050505050509192919290505050611b94565b6040518084815260200183815260200182600181111561070557fe5b60ff168152602001935050505060405180910390f35b34801561072757600080fd5b5061078a6004803603604081101561073e57600080fd5b81019080803573ffffffffffffffffffffffffffffffffffffffff169060200190929190803573ffffffffffffffffffffffffffffffffffffffff169060200190929190505050611ec7565b604051808260ff1660ff16815260200191505060405180910390f35b3480156107b257600080fd5b50610802600480360360408110156107c957600080fd5b81019080803573ffffffffffffffffffffffffffffffffffffffff169060200190929190803560ff169060200190929190505050612223565b005b34801561081057600080fd5b506108196123cd565b604051808215151515815260200191505060405180910390f35b34801561083f57600080fd5b506109196004803603604081101561085657600080fd5b81019080803573ffffffffffffffffffffffffffffffffffffffff1690602001909291908035906020019064010000000081111561089357600080fd5b8201836020820111156108a557600080fd5b803590602001918460018302840111640100000000831117156108c757600080fd5b91908080601f016020809104026020016040519081016040528093929190818152602001838380828437600081840152601f19601f8201169050808301925050505050505091929192905050506123e3565b005b34801561092757600080fd5b50610930612838565b6040518082815260200191505060405180910390f35b565b600260003373ffffffffffffffffffffffffffffffffffffffff1673ffffffffffffffffffffffffffffffffffffffff16815260200190815260200160002060009054906101000a900460ff16806109ec57506000809054906101000a900473ffffffffffffffffffffffffffffffffffffffff1673ffffffffffffffffffffffffffffffffffffffff163373ffffffffffffffffffffffffffffffffffffffff16145b610a5e576040517f08c379a00000000000000000000000000000000000000000000000000000000081526004018080602001828103825260188152602001807f43616c6c6572206973206e6f7420617574686f7269736564000000000000000081525060200191505060405180910390fd5b6000600460008373ffffffffffffffffffffffffffffffffffffffff1673ffffffffffffffffffffffffffffffffffffffff1681526020019081526020016000205411610b13576040517f08c379a00000000000000000000000000000000000000000000000000000000081526004018080602001828103825260128152602001807f4e6f2066756e647320617661696c61626c65000000000000000000000000000081525060200191505060405180910390fd5b6000600460008373ffffffffffffffffffffffffffffffffffffffff1673ffffffffffffffffffffffffffffffffffffffff168152602001908152602001600020819055508073ffffffffffffffffffffffffffffffffffffffff166108fc600460008473ffffffffffffffffffffffffffffffffffffffff1673ffffffffffffffffffffffffffffffffffffffff168152602001908152602001600020549081150290604051600060405180830381858888f19350505050158015610bdd573d6000803e3d6000fd5b5050565b6000600260003373ffffffffffffffffffffffffffffffffffffffff1673ffffffffffffffffffffffffffffffffffffffff16815260200190815260200160002060009054906101000a900460ff1680610c8757506000809054906101000a900473ffffffffffffffffffffffffffffffffffffffff1673ffffffffffffffffffffffffffffffffffffffff163373ffffffffffffffffffffffffffffffffffffffff16145b610cf9576040517f08c379a00000000000000000000000000000000000000000000000000000000081526004018080602001828103825260188152602001807f43616c6c6572206973206e6f7420617574686f7269736564000000000000000081525060200191505060405180910390fd5b6000600160008473ffffffffffffffffffffffffffffffffffffffff1673ffffffffffffffffffffffffffffffffffffffff16815260200190815260200160002060000180546001816001161561010002031660029004905014159050919050565b6000809054906101000a900473ffffffffffffffffffffffffffffffffffffffff1673ffffffffffffffffffffffffffffffffffffffff163373ffffffffffffffffffffffffffffffffffffffff1614610e1d576040517f08c379a000000000000000000000000000000000000000000000000000000000815260040180806020018281038252601c8152602001807f43616c6c6572206973206e6f7420636f6e7472616374206f776e65720000000081525060200191505060405180910390fd5b80600060146101000a81548160ff02191690831515021790555050565b6000600260003373ffffffffffffffffffffffffffffffffffffffff1673ffffffffffffffffffffffffffffffffffffffff16815260200190815260200160002060009054906101000a900460ff1680610ee057506000809054906101000a900473ffffffffffffffffffffffffffffffffffffffff1673ffffffffffffffffffffffffffffffffffffffff163373ffffffffffffffffffffffffffffffffffffffff16145b610f52576040517f08c379a00000000000000000000000000000000000000000000000000000000081526004018080602001828103825260188152602001807f43616c6c6572206973206e6f7420617574686f7269736564000000000000000081525060200191505060405180910390fd5b600160008373ffffffffffffffffffffffffffffffffffffffff1673ffffffffffffffffffffffffffffffffffffffff16815260200190815260200160002060010160149054906101000a900460ff169050919050565b600260003373ffffffffffffffffffffffffffffffffffffffff1673ffffffffffffffffffffffffffffffffffffffff16815260200190815260200160002060009054906101000a900460ff168061104d57506000809054906101000a900473ffffffffffffffffffffffffffffffffffffffff1673ffffffffffffffffffffffffffffffffffffffff163373ffffffffffffffffffffffffffffffffffffffff16145b6110bf576040517f08c379a00000000000000000000000000000000000000000000000000000000081526004018080602001828103825260188152602001807f43616c6c6572206973206e6f7420617574686f7269736564000000000000000081525060200191505060405180910390fd5b81600360008673ffffffffffffffffffffffffffffffffffffffff1673ffffffffffffffffffffffffffffffffffffffff168152602001908152602001600020846040518082805190602001908083835b602083106111335780518252602082019150602081019050602083039250611110565b6001836020036101000a03801982511681845116808217855250505050505090500191505090815260200160405180910390206001015414156111de576040517f08c379a00000000000000000000000000000000000000000000000000000000081526004018080602001828103825260188152602001807f496e737572616e636520616c726561647920657869737473000000000000000081525060200191505060405180910390fd5b60405180608001604052808481526020018381526020018281526020016000600181111561120857fe5b815250600360008673ffffffffffffffffffffffffffffffffffffffff1673ffffffffffffffffffffffffffffffffffffffff168152602001908152602001600020846040518082805190602001908083835b6020831061127e578051825260208201915060208101905060208303925061125b565b6001836020036101000a038019825116818451168082178552505050505050905001915050908152602001604051809103902060008201518160000190805190602001906112cd929190612958565b50602082015181600101556040820151816002015560608201518160030160006101000a81548160ff0219169083600181111561130657fe5b021790555090505050505050565b600260003373ffffffffffffffffffffffffffffffffffffffff1673ffffffffffffffffffffffffffffffffffffffff16815260200190815260200160002060009054906101000a900460ff16806113b857506000809054906101000a900473ffffffffffffffffffffffffffffffffffffffff1673ffffffffffffffffffffffffffffffffffffffff163373ffffffffffffffffffffffffffffffffffffffff16145b61142a576040517f08c379a00000000000000000000000000000000000000000000000000000000081526004018080602001828103825260188152602001807f43616c6c6572206973206e6f7420617574686f7269736564000000000000000081525060200191505060405180910390fd5b6000600181111561143757fe5b600360008473ffffffffffffffffffffffffffffffffffffffff1673ffffffffffffffffffffffffffffffffffffffff168152602001908152602001600020826040518082805190602001908083835b602083106114aa5780518252602082019150602081019050602083039250611487565b6001836020036101000a038019825116818451168082178552505050505050905001915050908152602001604051809103902060030160009054906101000a900460ff1660018111156114f957fe5b1461150357600080fd5b6001600360008473ffffffffffffffffffffffffffffffffffffffff1673ffffffffffffffffffffffffffffffffffffffff168152602001908152602001600020826040518082805190602001908083835b602083106115785780518252602082019150602081019050602083039250611555565b6001836020036101000a038019825116818451168082178552505050505050905001915050908152602001604051809103902060030160006101000a81548160ff021916908360018111156115c957fe5b0217905550600360008373ffffffffffffffffffffffffffffffffffffffff1673ffffffffffffffffffffffffffffffffffffffff168152602001908152602001600020816040518082805190602001908083835b60208310611641578051825260208201915060208101905060208303925061161e565b6001836020036101000a038019825116818451168082178552505050505050905001915050908152602001604051809103902060020154600460008473ffffffffffffffffffffffffffffffffffffffff1673ffffffffffffffffffffffffffffffffffffffff1681526020019081526020016000205401600460008473ffffffffffffffffffffffffffffffffffffffff1673ffffffffffffffffffffffffffffffffffffffff168152602001908152602001600020819055505050565b600260003373ffffffffffffffffffffffffffffffffffffffff1673ffffffffffffffffffffffffffffffffffffffff16815260200190815260200160002060009054906101000a900460ff16806117a457506000809054906101000a900473ffffffffffffffffffffffffffffffffffffffff1673ffffffffffffffffffffffffffffffffffffffff163373ffffffffffffffffffffffffffffffffffffffff16145b611816576040517f08c379a00000000000000000000000000000000000000000000000000000000081526004018080602001828103825260188152602001807f43616c6c6572206973206e6f7420617574686f7269736564000000000000000081525060200191505060405180910390fd5b60405180608001604052808281526020018473ffffffffffffffffffffffffffffffffffffffff1681526020018360ff16600281111561185257fe5b600281111561185d57fe5b8152602001600060ff16815250600160008573ffffffffffffffffffffffffffffffffffffffff1673ffffffffffffffffffffffffffffffffffffffff16815260200190815260200160002060008201518160000190805190602001906118c5929190612958565b5060208201518160010160006101000a81548173ffffffffffffffffffffffffffffffffffffffff021916908373ffffffffffffffffffffffffffffffffffffffff16021790555060408201518160010160146101000a81548160ff0219169083600281111561193157fe5b021790555060608201518160030160006101000a81548160ff021916908360ff160217905550905050505050565b6000809054906101000a900473ffffffffffffffffffffffffffffffffffffffff1673ffffffffffffffffffffffffffffffffffffffff163373ffffffffffffffffffffffffffffffffffffffff1614611a21576040517f08c379a000000000000000000000000000000000000000000000000000000000815260040180806020018281038252601c8152602001807f43616c6c6572206973206e6f7420636f6e7472616374206f776e65720000000081525060200191505060405180910390fd5b80600260008473ffffffffffffffffffffffffffffffffffffffff1673ffffffffffffffffffffffffffffffffffffffff16815260200190815260200160002060006101000a81548160ff0219169083151502179055505050565b60008060009054906101000a900473ffffffffffffffffffffffffffffffffffffffff1673ffffffffffffffffffffffffffffffffffffffff163373ffffffffffffffffffffffffffffffffffffffff1614611b40576040517f08c379a000000000000000000000000000000000000000000000000000000000815260040180806020018281038252601c8152602001807f43616c6c6572206973206e6f7420636f6e7472616374206f776e65720000000081525060200191505060405180910390fd5b600260008373ffffffffffffffffffffffffffffffffffffffff1673ffffffffffffffffffffffffffffffffffffffff16815260200190815260200160002060009054906101000a900460ff169050919050565b6000806000600260003373ffffffffffffffffffffffffffffffffffffffff1673ffffffffffffffffffffffffffffffffffffffff16815260200190815260200160002060009054906101000a900460ff1680611c3d57506000809054906101000a900473ffffffffffffffffffffffffffffffffffffffff1673ffffffffffffffffffffffffffffffffffffffff163373ffffffffffffffffffffffffffffffffffffffff16145b611caf576040517f08c379a00000000000000000000000000000000000000000000000000000000081526004018080602001828103825260188152602001807f43616c6c6572206973206e6f7420617574686f7269736564000000000000000081525060200191505060405180910390fd5b600360008673ffffffffffffffffffffffffffffffffffffffff1673ffffffffffffffffffffffffffffffffffffffff168152602001908152602001600020846040518082805190602001908083835b60208310611d225780518252602082019150602081019050602083039250611cff565b6001836020036101000a0380198251168184511680821785525050505050509050019150509081526020016040518091039020600101549250600360008673ffffffffffffffffffffffffffffffffffffffff1673ffffffffffffffffffffffffffffffffffffffff168152602001908152602001600020846040518082805190602001908083835b60208310611dce5780518252602082019150602081019050602083039250611dab565b6001836020036101000a0380198251168184511680821785525050505050509050019150509081526020016040518091039020600201549150600360008673ffffffffffffffffffffffffffffffffffffffff1673ffffffffffffffffffffffffffffffffffffffff168152602001908152602001600020846040518082805190602001908083835b60208310611e7a5780518252602082019150602081019050602083039250611e57565b6001836020036101000a038019825116818451168082178552505050505050905001915050908152602001604051809103902060030160009054906101000a900460ff1690509250925092565b6000600260003373ffffffffffffffffffffffffffffffffffffffff1673ffffffffffffffffffffffffffffffffffffffff16815260200190815260200160002060009054906101000a900460ff1680611f6d57506000809054906101000a900473ffffffffffffffffffffffffffffffffffffffff1673ffffffffffffffffffffffffffffffffffffffff163373ffffffffffffffffffffffffffffffffffffffff16145b611fdf576040517f08c379a00000000000000000000000000000000000000000000000000000000081526004018080602001828103825260188152602001807f43616c6c6572206973206e6f7420617574686f7269736564000000000000000081525060200191505060405180910390fd5b600160008473ffffffffffffffffffffffffffffffffffffffff1673ffffffffffffffffffffffffffffffffffffffff16815260200190815260200160002060020160008373ffffffffffffffffffffffffffffffffffffffff1673ffffffffffffffffffffffffffffffffffffffff16815260200190815260200160002060009054906101000a900460ff16156120c2576040517f08c379a00000000000000000000000000000000000000000000000000000000081526004018080602001828103825260318152602001806129fe6031913960400191505060405180910390fd5b60018060008573ffffffffffffffffffffffffffffffffffffffff1673ffffffffffffffffffffffffffffffffffffffff16815260200190815260200160002060020160008473ffffffffffffffffffffffffffffffffffffffff1673ffffffffffffffffffffffffffffffffffffffff16815260200190815260200160002060006101000a81548160ff021916908315150217905550600160008473ffffffffffffffffffffffffffffffffffffffff1673ffffffffffffffffffffffffffffffffffffffff168152602001908152602001600020600301600081819054906101000a900460ff168092919060010191906101000a81548160ff021916908360ff16021790555050600160008473ffffffffffffffffffffffffffffffffffffffff1673ffffffffffffffffffffffffffffffffffffffff16815260200190815260200160002060030160009054906101000a900460ff16905092915050565b600260003373ffffffffffffffffffffffffffffffffffffffff1673ffffffffffffffffffffffffffffffffffffffff16815260200190815260200160002060009054906101000a900460ff16806122c757506000809054906101000a900473ffffffffffffffffffffffffffffffffffffffff1673ffffffffffffffffffffffffffffffffffffffff163373ffffffffffffffffffffffffffffffffffffffff16145b612339576040517f08c379a00000000000000000000000000000000000000000000000000000000081526004018080602001828103825260188152602001807f43616c6c6572206973206e6f7420617574686f7269736564000000000000000081525060200191505060405180910390fd5b8060ff16600281111561234857fe5b600160008473ffffffffffffffffffffffffffffffffffffffff1673ffffffffffffffffffffffffffffffffffffffff16815260200190815260200160002060010160146101000a81548160ff021916908360028111156123a557fe5b021790555060028160ff1614156123c9576005600081548092919060010191905055505b5050565b60008060149054906101000a900460ff16905090565b600260003373ffffffffffffffffffffffffffffffffffffffff1673ffffffffffffffffffffffffffffffffffffffff16815260200190815260200160002060009054906101000a900460ff168061248757506000809054906101000a900473ffffffffffffffffffffffffffffffffffffffff1673ffffffffffffffffffffffffffffffffffffffff163373ffffffffffffffffffffffffffffffffffffffff16145b6124f9576040517f08c379a00000000000000000000000000000000000000000000000000000000081526004018080602001828103825260188152602001807f43616c6c6572206973206e6f7420617574686f7269736564000000000000000081525060200191505060405180910390fd5b6000600181111561250657fe5b600360008473ffffffffffffffffffffffffffffffffffffffff1673ffffffffffffffffffffffffffffffffffffffff168152602001908152602001600020826040518082805190602001908083835b602083106125795780518252602082019150602081019050602083039250612556565b6001836020036101000a038019825116818451168082178552505050505050905001915050908152602001604051809103902060030160009054906101000a900460ff1660018111156125c857fe5b1461263b576040517f08c379a00000000000000000000000000000000000000000000000000000000081526004018080602001828103825260198152602001807f496e737572616e636520616c726561647920636c61696d65640000000000000081525060200191505060405180910390fd5b6001600360008473ffffffffffffffffffffffffffffffffffffffff1673ffffffffffffffffffffffffffffffffffffffff168152602001908152602001600020826040518082805190602001908083835b602083106126b0578051825260208201915060208101905060208303925061268d565b6001836020036101000a038019825116818451168082178552505050505050905001915050908152602001604051809103902060030160006101000a81548160ff0219169083600181111561270157fe5b0217905550600360008373ffffffffffffffffffffffffffffffffffffffff1673ffffffffffffffffffffffffffffffffffffffff168152602001908152602001600020816040518082805190602001908083835b602083106127795780518252602082019150602081019050602083039250612756565b6001836020036101000a038019825116818451168082178552505050505050905001915050908152602001604051809103902060020154600460008473ffffffffffffffffffffffffffffffffffffffff1673ffffffffffffffffffffffffffffffffffffffff1681526020019081526020016000205401600460008473ffffffffffffffffffffffffffffffffffffffff1673ffffffffffffffffffffffffffffffffffffffff168152602001908152602001600020819055505050565b6000600260003373ffffffffffffffffffffffffffffffffffffffff1673ffffffffffffffffffffffffffffffffffffffff16815260200190815260200160002060009054906101000a900460ff16806128de57506000809054906101000a900473ffffffffffffffffffffffffffffffffffffffff1673ffffffffffffffffffffffffffffffffffffffff163373ffffffffffffffffffffffffffffffffffffffff16145b612950576040517f08c379a00000000000000000000000000000000000000000000000000000000081526004018080602001828103825260188152602001807f43616c6c6572206973206e6f7420617574686f7269736564000000000000000081525060200191505060405180910390fd5b600554905090565b828054600181600116156101000203166002900490600052602060002090601f016020900481019282601f1061299957805160ff19168380011785556129c7565b828001600101855582156129c7579182015b828111156129c65782518255916020019190600101906129ab565b5b5090506129d491906129d8565b5090565b6129fa91905b808211156129f65760008160009055506001016129de565b5090565b9056fe54686973206169726c696e652068617320616c726561647920617070726f76656420746865206e6577206169726c696e65a265627a7a72315820209ef18cbc9105d3c1055873d0982164e17c3c55f4539c13a7399324d789e7eb64736f6c63430005100032",
  "source": "pragma solidity ^0.5.16;\r\n\r\nimport \"../../node_modules/openzeppelin-solidity/contracts/math/SafeMath.sol\";\r\n\r\ncontract FlightSuretyData {\r\n    using SafeMath for uint256;\r\n\r\n    /********************************************************************************************/\r\n    /*                                       DATA VARIABLES                                     */\r\n    /********************************************************************************************/\r\n\r\n    address private contractOwner;                                      // Account used to deploy contract\r\n    bool private operational = true;                                    // Blocks all state changes throughout the contract if false.\r\n  \r\n     struct Airline {\r\n        string name;\r\n        address airlineAddress;\r\n        AirlineState state;\r\n       \r\n        mapping(address => bool) approvals;\r\n        uint8 approvalCount;\r\n    }\r\n\r\n     struct Insurance {\r\n        string  flight;\r\n        uint256 amount;\r\n        uint256 payoutAmount;\r\n        InsuranceState state;\r\n    }\r\n\r\n       enum InsuranceState {\r\n        Bought,\r\n        Credited\r\n    }\r\n\r\n       enum AirlineState {\r\n        Applied,\r\n        Registered,\r\n        Active\r\n    }\r\n\r\n    mapping(address => Airline) internal airlines;\r\n    mapping(address => bool) private authorizedAppContracts;\r\n\r\n    mapping(address => mapping(string => Insurance)) private insurances;\r\n    mapping(address => uint256) private insuranceBalances;\r\n\r\n    uint256 internal activeAirlines = 0;\r\n\r\n    /********************************************************************************************/\r\n    /*                                       EVENT DEFINITIONS                                  */\r\n    /********************************************************************************************/\r\n\r\n\r\n    /**\r\n    * @dev Constructor\r\n    *      The deploying account becomes contractOwner\r\n    */\r\n    constructor\r\n                                (\r\n                                ) \r\n                                public \r\n    {\r\n        contractOwner = msg.sender;\r\n        authorizedAppContracts[msg.sender] = true;\r\n\r\n        airlines[contractOwner] = Airline(\"First Airline\",contractOwner,AirlineState.Active,0);\r\n\r\n        activeAirlines = 1;\r\n    }\r\n\r\n    /********************************************************************************************/\r\n    /*                                       FUNCTION MODIFIERS                                 */\r\n    /********************************************************************************************/\r\n\r\n    // Modifiers help avoid duplication of code. They are typically used to validate something\r\n    // before a function is allowed to be executed.\r\n\r\n    /**\r\n    * @dev Modifier that requires the \"operational\" boolean variable to be \"true\"\r\n    *      This is used on all state changing functions to pause the contract in \r\n    *      the event there is an issue that needs to be fixed\r\n    */\r\n    modifier requireIsOperational() \r\n    {\r\n        require(operational, \"Contract is currently not operational\");\r\n        _;  // All modifiers require an \"_\" which indicates where the function body will be added\r\n    }\r\n\r\n    /**\r\n    * @dev Modifier that requires the \"ContractOwner\" account to be the function caller\r\n    */\r\n    modifier requireContractOwner()\r\n    {\r\n        require(msg.sender == contractOwner, \"Caller is not contract owner\");\r\n        _;\r\n    }\r\n       modifier requireAuthorizedCaller()\r\n    {\r\n        require(authorizedAppContracts[msg.sender] || msg.sender == contractOwner , \"Caller is not authorised\");\r\n        _;\r\n    }\r\n\r\n    /********************************************************************************************/\r\n    /*                                       UTILITY FUNCTIONS                                  */\r\n    /********************************************************************************************/\r\n\r\n    /**\r\n    * @dev Get operating status of contract\r\n    *\r\n    * @return A bool that is the current operating status\r\n    */      \r\n    function isOperational() \r\n                            public \r\n                            view \r\n                            returns(bool) \r\n    {\r\n        return operational;\r\n    }\r\n\r\n\r\n    /**\r\n    * @dev Sets contract operations on/off\r\n    *\r\n    * When operational mode is disabled, all write transactions except for this one will fail\r\n    */    \r\n    function setOperatingStatus\r\n                            (\r\n                                bool mode\r\n                            ) \r\n                            public\r\n                            requireContractOwner \r\n    {\r\n        operational = mode;\r\n    }\r\n\r\n    function setAppContractAuthorizationStatus(address appContract, bool status) public requireContractOwner\r\n    {\r\n        authorizedAppContracts[appContract] = status;\r\n    }\r\n\r\n     function getAppContractAuthorizationStatus(address caller) public view requireContractOwner returns (bool)\r\n    {\r\n        return authorizedAppContracts[caller];\r\n    }\r\n\r\n    /********************************************************************************************/\r\n    /*                                     SMART CONTRACT FUNCTIONS                             */\r\n    /********************************************************************************************/\r\n\r\n   /**\r\n    * @dev Add an airline to the registration queue\r\n    *      Can only be called from FlightSuretyApp contract\r\n    *\r\n    */   \r\n    function registerAirline\r\n                            (\r\n                                address airlineAddress,\r\n                                uint8 state, \r\n                                string memory name   \r\n                            )\r\n                            public\r\n                            requireAuthorizedCaller\r\n    {\r\n        airlines[airlineAddress] = Airline(name,airlineAddress, AirlineState(state), 0); \r\n    }\r\n    \r\n    function getAirlineState\r\n                            (\r\n                                address airline\r\n                            )\r\n                            public\r\n                            view\r\n                            requireAuthorizedCaller\r\n                            returns (AirlineState)\r\n    {\r\n        return airlines[airline].state;\r\n    }\r\n\r\n   function isAirline\r\n                    (\r\n                    address airline\r\n                    )\r\n                    public\r\n                    view\r\n                    requireAuthorizedCaller\r\n                    returns (bool)\r\n    {\r\n        return bytes(airlines[airline].name).length != 0;\r\n    }\r\n\r\n    function updateAirlineState\r\n                            (\r\n                                address airline,\r\n                                uint8 state\r\n                            )\r\n                            public\r\n                            requireAuthorizedCaller\r\n    {\r\n        airlines[airline].state = AirlineState(state);\r\n        //increment active airlines if state is active.\r\n        if (state == 2){\r\n           activeAirlines++;\r\n        }\r\n    }\r\n\r\n     function getActiveAirlines\r\n                            (\r\n                            )\r\n                            public\r\n                            requireAuthorizedCaller\r\n                            returns (uint256)\r\n\r\n    {\r\n       return activeAirlines;\r\n    }\r\n\r\n    //approving to-be-registered airline by existing airline.\r\n   function approveAirlineRegistration\r\n                                     (\r\n                                     address tobeRegisteredAirline,\r\n                                     address existingAirline    \r\n                            )\r\n                            public\r\n                            requireAuthorizedCaller\r\n                            returns (uint8)\r\n\r\n    {\r\n        require(!airlines[tobeRegisteredAirline].approvals[existingAirline], \"This airline has already approved the new airline\");\r\n\r\n        airlines[tobeRegisteredAirline].approvals[existingAirline] = true;\r\n        //incrementing number of approvals for the registration.\r\n        airlines[tobeRegisteredAirline].approvalCount++;\r\n\r\n        return airlines[tobeRegisteredAirline].approvalCount;\r\n    }\r\n\r\n     \r\n    function getInsurance\r\n                            (      \r\n                                address insuree, \r\n                                string memory flight                        \r\n                            )\r\n                            public\r\n                            requireAuthorizedCaller\r\n                            returns \r\n                            (\r\n                                uint256 amount, \r\n                                uint256 payoutAmount, \r\n                                InsuranceState state\r\n                            )\r\n    {\r\n        amount = insurances[insuree][flight].amount;\r\n        payoutAmount = insurances[insuree][flight].payoutAmount;\r\n        state = insurances[insuree][flight].state;\r\n    }\r\n\r\n    function buyInsurance(\r\n                                address payable insuree, \r\n                                string memory flight, \r\n                                uint256 amount, \r\n                                uint256 payoutAmount\r\n                            )\r\n                            public \r\n                            requireAuthorizedCaller\r\n    {\r\n        require(insurances[insuree][flight].amount != amount, \"Insurance already exists\");\r\n\r\n        insurances[insuree][flight] = Insurance(flight, amount, payoutAmount, InsuranceState.Bought);\r\n    }\r\n\r\n    function creditInsurance(address insuree, string memory flight)\r\n    public\r\n    requireAuthorizedCaller\r\n    {\r\n        require(insurances[insuree][flight].state == InsuranceState.Bought, \"Insurance already claimed\");\r\n\r\n        insurances[insuree][flight].state = InsuranceState.Credited;\r\n\r\n        insuranceBalances[insuree] = insuranceBalances[insuree] + insurances[insuree][flight].payoutAmount;\r\n    }\r\n\r\n\r\n    /**\r\n     *  @dev Credits payouts to insurees\r\n    */\r\n    function creditInsurees\r\n                                (\r\n                                    address payable insuree,\r\n                                    string memory flight\r\n                                )\r\n                                public\r\n                                requireAuthorizedCaller\r\n    {\r\n        //Checks\r\n        require(insurances[insuree][flight].state == InsuranceState.Bought);\r\n        //Effects\r\n        insurances[insuree][flight].state = InsuranceState.Credited;\r\n        //Interaction\r\n        insuranceBalances[insuree] = insuranceBalances[insuree] + insurances[insuree][flight].payoutAmount;\r\n\r\n    }\r\n    \r\n\r\n    /**\r\n     *  @dev Transfers eligible payout funds to insuree\r\n     *\r\n    */\r\n    function pay\r\n                            (\r\n                                address payable insuree\r\n                            )\r\n                            public\r\n                            payable\r\n                            requireAuthorizedCaller\r\n    {\r\n        //Checks\r\n        require(insuranceBalances[insuree] > 0, \"No funds available\");\r\n        //Effects\r\n        insuranceBalances[insuree] = 0;\r\n        //Interaction\r\n        insuree.transfer(insuranceBalances[insuree]);\r\n    }\r\n\r\n   /**\r\n    * @dev Initial funding for the insurance. Unless there are too many delayed flights\r\n    *      resulting in insurance payouts, the contract should be self-sustaining\r\n    *\r\n    */   \r\n    function fund\r\n                            (   \r\n                            )\r\n                            public\r\n                            payable\r\n    {\r\n    }\r\n\r\n    function getFlightKey\r\n                        (\r\n                            address airline,\r\n                            string memory flight,\r\n                            uint256 timestamp\r\n                        )\r\n                        pure\r\n                        internal\r\n                        returns(bytes32) \r\n    {\r\n        return keccak256(abi.encodePacked(airline, flight, timestamp));\r\n    }\r\n\r\n    /**\r\n    * @dev Fallback function for funding smart contract.\r\n    *\r\n    */\r\n    function() \r\n                             \r\n                            payable \r\n                            external\r\n    {\r\n        fund();\r\n    }\r\n\r\n\r\n}\r\n\r\n",
  "sourcePath": "C:\\Users\\Limitless\\Desktop\\Limitless_flight_surety\\src\\contracts\\FlightSuretyData.sol",
  "compiler": {
    "name": "solc",
    "version": "0.5.16+commit.9c3226ce.Emscripten.clang"
  },
  "schemaVersion": "3.0.23",
  "updatedAt": "2020-05-04T23:46:40.173Z",
  "networkType": "ethereum",
  "devdoc": {
    "methods": {
      "constructor": {
        "details": "Constructor     The deploying account becomes contractOwner"
      },
      "creditInsurees(address,string)": {
        "details": "Credits payouts to insurees"
      },
      "fund()": {
        "details": "Initial funding for the insurance. Unless there are too many delayed flights     resulting in insurance payouts, the contract should be self-sustaining     "
      },
      "isOperational()": {
        "details": "Get operating status of contract ",
        "return": "A bool that is the current operating status"
      },
      "pay(address)": {
        "details": "Transfers eligible payout funds to insuree     "
      },
      "registerAirline(address,uint8,string)": {
        "details": "Add an airline to the registration queue     Can only be called from FlightSuretyApp contract     "
      },
      "setOperatingStatus(bool)": {
        "details": "Sets contract operations on/off     * When operational mode is disabled, all write transactions except for this one will fail"
      }
    }
  },
  "userdoc": {
    "methods": {}
  }
}